:020000040000FA
:02000000832853
:040002000034003492
:080008002D28FB0A7B080B0008
:100010001E34193418340F341D3424340F34193479
:1000200018340F341D3419341C341E341D34273455
:1000300027342734273427340B00013402340434A6
:10004000083410342034403480348E1600008E1270
:1000500008000C1600000C1208000B112200A40B63
:1000600039283130A400F80AA10B39280A30A10040
:10007000A00A250A0739A500031D43282608F90010
:10008000FF30A600FF033030A2000E122208083C09
:1000900003180E162520A20B452829202508703E9E
:1000A000860087010108A300A30A2830A2000E16CB
:1000B000A30B0E122520A20B57282508A300A30A84
:1000C0000830A2000E12A30B0E162520A20B6228E8
:1000D000292020000E360339200603197C2820062B
:1000E000A00CA006A00CA000033A031D7C28031856
:1000F0007B28FA0A7C28FA038E1981282200250819
:06010000A600F121090038
:0A010600F03021009900A0000C1257
:100110000E128E1223008C018E01053021009500F5
:10012000A0308B00FA010339FC00D621E021063013
:10013000212220000C1DA0287A087C07FA019328B0
:100140000A30FD00E02106302122D621063021228E
:10015000FD0BA2287C080B00AF280929662927304F
:10016000D721A0308400013085001430FD00F1213A
:100170002100200807398000840AFD0BB7280130D0
:10018000FE00FB01D62101308500A0307B078400F2
:100190000008FD00703E8400003085007D08013EAF
:1001A00080003E302122D6210C302122FB0A7B0820
:1001B0007E02031DC228FB01D6211B2200308500D0
:1001C0007908703E84007908013E80000130850086
:1001D000A0307B078400000879020319F52862210A
:1001E0007E082200A000A00351291E22FB0A7B08E2
:1001F0007E02031DDC286021BB302122FE0AC128BB
:100200000B0001340234033404340534063407345B
:1002100007342622FE0108307E06031951297E0884
:10022000FE0A00212000A4002000A101F1210730D6
:10023000210020051C202100A20020002105031D13
:100240001629210022082000A1042000A40B162951
:10025000D62120002108FD211B222000A50100300D
:10026000D7217908073C1C202000A506FA012000B0
:100270002508C7211E22F91F31297A0803193B29B5
:1002800020002508210603194F29D6212508FD2124
:10029000142220002108FD21BB30212236296021B3
:1002A0000B29D62122002008FD2114221D30F00048
:1002B0000D30F1001C30F2000F30F3001B229228A9
:1002C000263063292530D7215D30212A26220530AA
:1002D000FE00D6217030840085010830FD00F12138
:1002E000210020081F390B3EFB00DB3E03186F295D
:1002F0007B08700603196F297B08710603196F29A3
:100300007B08720603196F297B08730603196F298E
:100310007B08740603196F297B08750603196F297A
:100320007B08760603196F297B08770603196F2966
:100330007B088000840AFD0B6F290830FC001B221B
:100340000830FD00703084000008FB007B080002CC
:10035000031CAC290008FB00840AFD0BA6297030A1
:100360007907840000087B020319BF290008FB00FD
:1003700025308000BB3021227B0880009F290A3075
:1003800080001E22FC0B9F29FE0B692951292100A8
:10039000A2007030840085010830FD008001A20DAC
:1003A0000318800A840AFD0BCE2908000A30F000E9
:1003B000F100F200F300F400F500F600F700080089
:1003C0007C35FB00FB357C08FB07FB030520F000B8
:1003D0000520F1000520F2000520F3000520F400BF
:1003E00008002100200C2106A200A20EA00DA006EC
:1003F000A206220DA10DA00D08002000A301A30359
:10040000A200A30A063023078318A3000A302202A1
:100410000318002A2208F2002308F000F00EF10071
:100420000F30F105F00508007008F5007108F600BE
:100430007208F7000800F91B1B2A202AF91F1E2A40
:100440000230FF00FF08031D222A080022000A30A4
:06045000A100A00108005C
:020000040001F9
:02000E00E40903
:02001000FB3FB4
:00000001FF
